{
  "contractName": "MemeFactory",
  "abi": [
    {
      "constant": true,
      "inputs": [
        {
          "name": "",
          "type": "uint256"
        }
      ],
      "name": "memes",
      "outputs": [
        {
          "name": "index",
          "type": "uint256"
        },
        {
          "name": "photoImage",
          "type": "bytes32"
        },
        {
          "name": "title",
          "type": "bytes32"
        },
        {
          "name": "price",
          "type": "uint256"
        },
        {
          "name": "basePrice",
          "type": "uint256"
        },
        {
          "name": "upvotesIndex",
          "type": "uint256"
        },
        {
          "name": "sellablesIndex",
          "type": "uint256"
        }
      ],
      "payable": false,
      "stateMutability": "view",
      "type": "function"
    },
    {
      "constant": false,
      "inputs": [
        {
          "name": "title",
          "type": "bytes32"
        },
        {
          "name": "photoImage",
          "type": "bytes32"
        }
      ],
      "name": "createMeme",
      "outputs": [],
      "payable": true,
      "stateMutability": "payable",
      "type": "function"
    },
    {
      "constant": false,
      "inputs": [
        {
          "name": "memeIndex",
          "type": "uint256"
        },
        {
          "name": "sharePercentage",
          "type": "uint256"
        }
      ],
      "name": "buyMemeShares",
      "outputs": [],
      "payable": true,
      "stateMutability": "payable",
      "type": "function"
    },
    {
      "constant": false,
      "inputs": [
        {
          "name": "memeIndex",
          "type": "uint256"
        },
        {
          "name": "sharePercentage",
          "type": "uint256"
        }
      ],
      "name": "sellMemeShare",
      "outputs": [],
      "payable": false,
      "stateMutability": "nonpayable",
      "type": "function"
    },
    {
      "constant": false,
      "inputs": [
        {
          "name": "memeIndex",
          "type": "uint256"
        }
      ],
      "name": "upvoteMeme",
      "outputs": [],
      "payable": false,
      "stateMutability": "nonpayable",
      "type": "function"
    },
    {
      "constant": false,
      "inputs": [
        {
          "name": "memeIndex",
          "type": "uint256"
        },
        {
          "name": "price",
          "type": "uint256"
        }
      ],
      "name": "updateMemePrice",
      "outputs": [],
      "payable": false,
      "stateMutability": "nonpayable",
      "type": "function"
    },
    {
      "constant": false,
      "inputs": [
        {
          "name": "memeIndexes",
          "type": "uint256[]"
        },
        {
          "name": "prices",
          "type": "uint256[]"
        }
      ],
      "name": "batchUpdateMemePrices",
      "outputs": [],
      "payable": false,
      "stateMutability": "nonpayable",
      "type": "function"
    },
    {
      "constant": true,
      "inputs": [],
      "name": "getMemesLength",
      "outputs": [
        {
          "name": "",
          "type": "uint256"
        }
      ],
      "payable": false,
      "stateMutability": "view",
      "type": "function"
    },
    {
      "constant": true,
      "inputs": [
        {
          "name": "memeIndex",
          "type": "uint256"
        }
      ],
      "name": "getMemeDetails",
      "outputs": [
        {
          "name": "upvotes",
          "type": "uint256[]"
        },
        {
          "name": "sellables",
          "type": "uint256[]"
        },
        {
          "name": "owners",
          "type": "address[]"
        }
      ],
      "payable": false,
      "stateMutability": "view",
      "type": "function"
    },
    {
      "constant": true,
      "inputs": [
        {
          "name": "memeIndex",
          "type": "uint256"
        }
      ],
      "name": "hasUserVoted",
      "outputs": [
        {
          "name": "",
          "type": "bool"
        }
      ],
      "payable": false,
      "stateMutability": "view",
      "type": "function"
    }
  ],
  "bytecode": "0x6080604052336000806101000a81548173ffffffffffffffffffffffffffffffffffffffff021916908373ffffffffffffffffffffffffffffffffffffffff16021790555060018060007307520d07ad25028695415a1f94a13ab0896466dd73ffffffffffffffffffffffffffffffffffffffff16815260200190815260200160002060006101000a81548160ff0219169083151502179055506114e5806100a86000396000f3006080604052600436106100a4576000357c0100000000000000000000000000000000000000000000000000000000900463ffffffff1680630b772597146100a957806311bcab0814610152578063388f60641461017d5780635153af5c146101f85780636453d3c31461023d578063c0a789ee14610274578063d851359f1461029e578063de8d6b0f146102d0578063e66f464e14610307578063f746c56b14610419575b600080fd5b3480156100b557600080fd5b506101506004803603810190808035906020019082018035906020019080806020026020016040519081016040528093929190818152602001838360200280828437820191505050505050919291929080359060200190820180359060200190808060200260200160405190810160405280939291908181526020018383602002808284378201915050505050509192919290505050610446565b005b34801561015e57600080fd5b506101676105ca565b6040518082815260200191505060405180910390f35b34801561018957600080fd5b506101a8600480360381019080803590602001909291905050506105d7565b604051808881526020018760001916600019168152602001866000191660001916815260200185815260200184815260200183815260200182815260200197505050505050505060405180910390f35b34801561020457600080fd5b5061022360048036038101908080359060200190929190505050610628565b604051808215151515815260200191505060405180910390f35b34801561024957600080fd5b5061027260048036038101908080359060200190929190803590602001909291905050506106a1565b005b61029c600480360381019080803590602001909291908035906020019092919050505061081f565b005b6102ce60048036038101908080356000191690602001909291908035600019169060200190929190505050610b40565b005b3480156102dc57600080fd5b506103056004803603810190808035906020019092919080359060200190929190505050610ecc565b005b34801561031357600080fd5b506103326004803603810190808035906020019092919050505061100c565b60405180806020018060200180602001848103845287818151815260200191508051906020019060200280838360005b8381101561037d578082015181840152602081019050610362565b50505050905001848103835286818151815260200191508051906020019060200280838360005b838110156103bf5780820151818401526020810190506103a4565b50505050905001848103825285818151815260200191508051906020019060200280838360005b838110156104015780820151818401526020810190506103e6565b50505050905001965050505050505060405180910390f35b34801561042557600080fd5b50610444600480360381019080803590602001909291905050506111ea565b005b60008060011515600160003373ffffffffffffffffffffffffffffffffffffffff1673ffffffffffffffffffffffffffffffffffffffff16815260200190815260200160002060009054906101000a900460ff16151514806104f457506000809054906101000a900473ffffffffffffffffffffffffffffffffffffffff1673ffffffffffffffffffffffffffffffffffffffff163373ffffffffffffffffffffffffffffffffffffffff16145b15156104ff57600080fd5b6000809054906101000a900473ffffffffffffffffffffffffffffffffffffffff1673ffffffffffffffffffffffffffffffffffffffff163373ffffffffffffffffffffffffffffffffffffffff1614151561055a57600080fd5b8251845114151561056a57600080fd5b600091505b83518210156105c45760028281548110151561058757fe5b90600052602060002090600c0201905082828151811015156105a557fe5b906020019060200201518160030181905550818060010192505061056f565b50505050565b6000600280549050905090565b6002818154811015156105e657fe5b90600052602060002090600c020160009150905080600001549080600101549080600201549080600301549080600401549080600a01549080600b0154905087565b60008060028381548110151561063a57fe5b90600052602060002090600c020190508060060160003373ffffffffffffffffffffffffffffffffffffffff1673ffffffffffffffffffffffffffffffffffffffff16815260200190815260200160002060009054906101000a900460ff16915050919050565b60006106ab611370565b6002848154811015156106ba57fe5b90600052602060002090600c0201915060008260070160003373ffffffffffffffffffffffffffffffffffffffff1673ffffffffffffffffffffffffffffffffffffffff1681526020019081526020016000205411151561071a57600080fd5b828260070160003373ffffffffffffffffffffffffffffffffffffffff1673ffffffffffffffffffffffffffffffffffffffff168152602001908152602001600020541015151561076a57600080fd5b60408051908101604052808481526020013373ffffffffffffffffffffffffffffffffffffffff1681525090508082600901600084600b015481526020019081526020016000206000820151816000015560208201518160010160006101000a81548173ffffffffffffffffffffffffffffffffffffffff021916908373ffffffffffffffffffffffffffffffffffffffff16021790555090505081600b016000815480929190600101919050555050505050565b60008060008060028681548110151561083457fe5b90600052602060002090600c02019350348585600301540214151561085857600080fd5b6064851115151561086857600080fd5b849250600091505b83600b0154821015610acf5783600901600083815260200190815260200160002090503373ffffffffffffffffffffffffffffffffffffffff168160010160009054906101000a900473ffffffffffffffffffffffffffffffffffffffff1673ffffffffffffffffffffffffffffffffffffffff1614806108f5575060008160000154145b156108ff57610b38565b8281600001541015156109e557828160000160008282540392505081905550828460070160008360010160009054906101000a900473ffffffffffffffffffffffffffffffffffffffff1673ffffffffffffffffffffffffffffffffffffffff1673ffffffffffffffffffffffffffffffffffffffff16815260200190815260200160002060008282540392505081905550828460070160003373ffffffffffffffffffffffffffffffffffffffff1673ffffffffffffffffffffffffffffffffffffffff16815260200190815260200160002060008282540192505081905550610acf565b80600001548303925080600001548460070160008360010160009054906101000a900473ffffffffffffffffffffffffffffffffffffffff1673ffffffffffffffffffffffffffffffffffffffff1673ffffffffffffffffffffffffffffffffffffffff1681526020019081526020016000206000828254039250508190555080600001548460070160003373ffffffffffffffffffffffffffffffffffffffff1673ffffffffffffffffffffffffffffffffffffffff16815260200190815260200160002060008282540192505081905550600081600001819055508180600101925050610870565b836005013390806001815401808255809150509060018203906000526020600020016000909192909190916101000a81548173ffffffffffffffffffffffffffffffffffffffff021916908373ffffffffffffffffffffffffffffffffffffffff160217905550505b505050505050565b610b486113a0565b600080600034111515610be9576040517f08c379a00000000000000000000000000000000000000000000000000000000081526004018080602001828103825260218152602001807f50726963652073686f756c642062652067726561746572207468616e207a657281526020017f6f0000000000000000000000000000000000000000000000000000000000000081525060400191505060405180910390fd5b61010060405190810160405280600280549050815260200185600019168152602001866000191681526020013481526020013481526020016000604051908082528060200260200182016040528015610c515781602001602082028038833980820191505090505b508152602001600181526020016000815250925060016002849080600181540180825580915050906001820390600052602060002090600c020160009091929091909150600082015181600001556020820151816001019060001916905560408201518160020190600019169055606082015181600301556080820151816004015560a0820151816005019080519060200190610cef9291906113ec565b5060c082015181600a015560e082015181600b01555050039150600282815481101515610d1857fe5b90600052602060002090600c02019050806005013390806001815401808255809150509060018203906000526020600020016000909192909190916101000a81548173ffffffffffffffffffffffffffffffffffffffff021916908373ffffffffffffffffffffffffffffffffffffffff1602179055505060408051908101604052804281526020013373ffffffffffffffffffffffffffffffffffffffff168152508160080160008081526020019081526020016000206000820151816000015560208201518160010160006101000a81548173ffffffffffffffffffffffffffffffffffffffff021916908373ffffffffffffffffffffffffffffffffffffffff16021790555090505060018160060160003373ffffffffffffffffffffffffffffffffffffffff1673ffffffffffffffffffffffffffffffffffffffff16815260200190815260200160002060006101000a81548160ff02191690831515021790555060648160070160003373ffffffffffffffffffffffffffffffffffffffff1673ffffffffffffffffffffffffffffffffffffffff168152602001908152602001600020819055505050505050565b600060011515600160003373ffffffffffffffffffffffffffffffffffffffff1673ffffffffffffffffffffffffffffffffffffffff16815260200190815260200160002060009054906101000a900460ff1615151480610f7957506000809054906101000a900473ffffffffffffffffffffffffffffffffffffffff1673ffffffffffffffffffffffffffffffffffffffff163373ffffffffffffffffffffffffffffffffffffffff16145b1515610f8457600080fd5b6000809054906101000a900473ffffffffffffffffffffffffffffffffffffffff1673ffffffffffffffffffffffffffffffffffffffff163373ffffffffffffffffffffffffffffffffffffffff16141515610fdf57600080fd5b600283815481101515610fee57fe5b90600052602060002090600c02019050818160030181905550505050565b6060806060600060608060008060028981548110151561102857fe5b90600052602060002090600c0201945084600a015460405190808252806020026020018201604052801561106b5781602001602082028038833980820191505090505b50935084600b01546040519080825280602002602001820160405280156110a15781602001602082028038833980820191505090505b509250600091505b84600a01548210156110f7578460080160008381526020019081526020016000206000015484838151811015156110dc57fe5b906020019060200201818152505081806001019250506110a9565b600090505b84600b015481101561114a5784600901600082815260200190815260200160002060000154838281518110151561112f57fe5b906020019060200201818152505080806001019150506110fc565b838386600501808054806020026020016040519081016040528092919081815260200182805480156111d157602002820191906000526020600020905b8160009054906101000a900473ffffffffffffffffffffffffffffffffffffffff1673ffffffffffffffffffffffffffffffffffffffff1681526020019060010190808311611187575b5050505050905097509750975050505050509193909250565b60006002828154811015156111fb57fe5b90600052602060002090600c020190508060060160003373ffffffffffffffffffffffffffffffffffffffff1673ffffffffffffffffffffffffffffffffffffffff16815260200190815260200160002060009054906101000a900460ff1615151561126657600080fd5b60408051908101604052804281526020013373ffffffffffffffffffffffffffffffffffffffff1681525081600801600083600a015481526020019081526020016000206000820151816000015560208201518160010160006101000a81548173ffffffffffffffffffffffffffffffffffffffff021916908373ffffffffffffffffffffffffffffffffffffffff16021790555090505080600a016000815480929190600101919050555060018160060160003373ffffffffffffffffffffffffffffffffffffffff1673ffffffffffffffffffffffffffffffffffffffff16815260200190815260200160002060006101000a81548160ff0219169083151502179055505050565b604080519081016040528060008152602001600073ffffffffffffffffffffffffffffffffffffffff1681525090565b6101006040519081016040528060008152602001600080191681526020016000801916815260200160008152602001600081526020016060815260200160008152602001600081525090565b828054828255906000526020600020908101928215611465579160200282015b828111156114645782518260006101000a81548173ffffffffffffffffffffffffffffffffffffffff021916908373ffffffffffffffffffffffffffffffffffffffff1602179055509160200191906001019061140c565b5b5090506114729190611476565b5090565b6114b691905b808211156114b257600081816101000a81549073ffffffffffffffffffffffffffffffffffffffff02191690555060010161147c565b5090565b905600a165627a7a723058205abdf40f7395937125d4d3453957041517d50efade7fd3542e1b8164cf41b9600029",
  "source": "pragma solidity ^0.4.24;\nimport \"./Admin.sol\";\n\ncontract MemeFactory is Admin {\n  Meme[] public memes;\n  \n\n  struct Upvote {\n    uint createdAt; \n    address user;\n  }\n\n  struct Sellable {\n    uint percentage;\n    address user;\n  }\n\n  struct Meme {\n    uint index;\n    bytes32 photoImage;\n    bytes32 title;\n    uint price;\n    uint basePrice;\n    address[] owners;\n    mapping (address => bool) hasVoted;\n    mapping (address => uint) ownersByShares;\n    mapping (uint => Upvote) upvotes;\n    mapping (uint => Sellable) sellables;\n    uint upvotesIndex;\n    uint sellablesIndex;\n  }\n\n  function createMeme(bytes32 title, bytes32 photoImage) public payable {\n    require(msg.value > 0, \"Price should be greater than zero\");\n\n    Meme memory meme = Meme({\n      index: memes.length,\n      photoImage: photoImage,\n      title: title,\n      price: msg.value,\n      basePrice: msg.value,\n      owners: new address[](0),\n      upvotesIndex: 1,\n      sellablesIndex: 0\n    });\n    \n    uint index = memes.push(meme) - 1;\n    Meme storage _meme = memes[index];\n    \n    _meme.owners.push(msg.sender);\n    _meme.upvotes[0] = Upvote({ user: msg.sender, createdAt: now });\n    _meme.hasVoted[msg.sender] = true;\n    _meme.ownersByShares[msg.sender] = 100;\n  }\n\n  function buyMemeShares(uint memeIndex, uint sharePercentage) public payable {\n    Meme storage meme = memes[memeIndex];\n    require(meme.price * sharePercentage == msg.value);\n    require(sharePercentage <= 100);\n    \n    uint sharePercentageBought = sharePercentage;\n    \n    for (uint i = 0; i < meme.sellablesIndex; i++) {\n        Sellable storage sellable = meme.sellables[i];\n        \n        if (sellable.user == msg.sender || sellable.percentage == 0){\n            return;\n        }\n        \n        if (sellable.percentage >= sharePercentageBought) {\n          sellable.percentage -= sharePercentageBought;\n          meme.ownersByShares[sellable.user] -= sharePercentageBought;\n          meme.ownersByShares[msg.sender] += sharePercentageBought;\n          break;\n        } else {\n          sharePercentageBought -= sellable.percentage;\n          meme.ownersByShares[sellable.user] -= sellable.percentage;\n          meme.ownersByShares[msg.sender] += sellable.percentage;\n          sellable.percentage = 0;\n        }\n    }\n\n    meme.owners.push(msg.sender);\n  }\n  \n  function sellMemeShare(uint memeIndex, uint sharePercentage) public {\n    Meme storage meme = memes[memeIndex];\n    require(meme.ownersByShares[msg.sender] > 0);\n    require(meme.ownersByShares[msg.sender] >= sharePercentage);\n    Sellable memory sellable = Sellable({ user: msg.sender, percentage: sharePercentage });\n    meme.sellables[meme.sellablesIndex] = sellable;\n    meme.sellablesIndex++;\n  }\n  \n  function upvoteMeme(uint memeIndex) public {\n    Meme storage meme = memes[memeIndex];\n    require(!meme.hasVoted[msg.sender]);\n    meme.upvotes[meme.upvotesIndex] = Upvote({ createdAt: now, user: msg.sender });\n    meme.upvotesIndex++;\n    meme.hasVoted[msg.sender] = true;\n  }\n  \n  function updateMemePrice(uint memeIndex, uint price) public onlyAdmin onlyOwner {\n    Meme storage meme = memes[memeIndex];\n    meme.price = price;\n  }\n  \n  function batchUpdateMemePrices(uint[] memory memeIndexes, uint[] memory prices) public onlyAdmin onlyOwner {\n    require(memeIndexes.length == prices.length);\n    for (uint i = 0; i < memeIndexes.length; i++) {\n        Meme storage meme = memes[i];\n        meme.price = prices[i];\n    }\n  }\n  \n  function getMemesLength() public view returns (uint) {\n      return memes.length;\n  }\n\n  function getMemeDetails(uint memeIndex) public view returns (\n    uint[] memory upvotes,\n    uint[] memory sellables,\n    address[] memory owners\n  ) {\n    Meme storage meme = memes[memeIndex];\n    uint[] memory _upvotes = new uint[](meme.upvotesIndex);\n    uint[] memory _sellabes = new uint[](meme.sellablesIndex);\n\n    for (uint i = 0; i < meme.upvotesIndex; i++) {\n      _upvotes[i] = meme.upvotes[i].createdAt;\n    }\n\n    for (uint x = 0; x < meme.sellablesIndex; x++ ) {\n      _sellabes[x] = meme.sellables[x].percentage;\n    }\n\n    return (_upvotes, _sellabes, meme.owners);\n   }\n\n    function hasUserVoted(uint memeIndex) public view returns (\n      bool\n    ) {\n      Meme storage m = memes[memeIndex];\n      return m.hasVoted[msg.sender];\n    }\n  \n}",
  "sourcePath": "/Users/liarolfrey/Gitprojects/cryptomemes/contracts/MemeFactory.sol",
  "compiler": {
    "name": "solc",
    "version": "0.4.24+commit.e67f0147.Emscripten.clang"
  },
  "schemaVersion": "2.0.1",
  "updatedAt": "2018-11-25T07:48:59.238Z"
}