{
  "contractName": "MemeFactory",
  "abi": [
    {
      "constant": true,
      "inputs": [
        {
          "name": "",
          "type": "uint256"
        }
      ],
      "name": "memes",
      "outputs": [
        {
          "name": "index",
          "type": "uint256"
        },
        {
          "name": "photoImage",
          "type": "bytes32"
        },
        {
          "name": "title",
          "type": "bytes32"
        },
        {
          "name": "price",
          "type": "uint256"
        },
        {
          "name": "upvotesIndex",
          "type": "uint256"
        },
        {
          "name": "sellablesIndex",
          "type": "uint256"
        }
      ],
      "payable": false,
      "stateMutability": "view",
      "type": "function"
    },
    {
      "constant": false,
      "inputs": [
        {
          "name": "title",
          "type": "bytes32"
        },
        {
          "name": "photoImage",
          "type": "bytes32"
        }
      ],
      "name": "createMeme",
      "outputs": [],
      "payable": true,
      "stateMutability": "payable",
      "type": "function"
    },
    {
      "constant": false,
      "inputs": [
        {
          "name": "memeIndex",
          "type": "uint256"
        },
        {
          "name": "sharePercentage",
          "type": "uint256"
        }
      ],
      "name": "buyMemeShares",
      "outputs": [],
      "payable": true,
      "stateMutability": "payable",
      "type": "function"
    },
    {
      "constant": false,
      "inputs": [
        {
          "name": "memeIndex",
          "type": "uint256"
        },
        {
          "name": "sharePercentage",
          "type": "uint256"
        }
      ],
      "name": "sellMemeShare",
      "outputs": [],
      "payable": false,
      "stateMutability": "nonpayable",
      "type": "function"
    },
    {
      "constant": false,
      "inputs": [
        {
          "name": "memeIndex",
          "type": "uint256"
        }
      ],
      "name": "upvoteMeme",
      "outputs": [],
      "payable": false,
      "stateMutability": "nonpayable",
      "type": "function"
    },
    {
      "constant": false,
      "inputs": [
        {
          "name": "memeIndex",
          "type": "uint256"
        },
        {
          "name": "price",
          "type": "uint256"
        }
      ],
      "name": "updateMemePrice",
      "outputs": [],
      "payable": false,
      "stateMutability": "nonpayable",
      "type": "function"
    },
    {
      "constant": true,
      "inputs": [],
      "name": "getMemesLength",
      "outputs": [
        {
          "name": "",
          "type": "uint256"
        }
      ],
      "payable": false,
      "stateMutability": "view",
      "type": "function"
    },
    {
      "constant": true,
      "inputs": [
        {
          "name": "memeIndex",
          "type": "uint256"
        }
      ],
      "name": "getMemeDetails",
      "outputs": [
        {
          "name": "upvotes",
          "type": "uint256[]"
        },
        {
          "name": "sellables",
          "type": "uint256[]"
        },
        {
          "name": "owners",
          "type": "address[]"
        }
      ],
      "payable": false,
      "stateMutability": "view",
      "type": "function"
    }
  ],
  "bytecode": "0x6080604052336000806101000a81548173ffffffffffffffffffffffffffffffffffffffff021916908373ffffffffffffffffffffffffffffffffffffffff1602179055506001806000730a727d92742cc4044b1b65a20b8dcda88ccc746273ffffffffffffffffffffffffffffffffffffffff1673ffffffffffffffffffffffffffffffffffffffff16815260200190815260200160002060006101000a81548160ff0219169083151502179055506110ff806100be6000396000f30060806040526004361061008e576000357c0100000000000000000000000000000000000000000000000000000000900463ffffffff16806311bcab0814610093578063388f6064146100be5780636453d3c314610132578063c0a789ee14610169578063d851359f14610193578063de8d6b0f146101c5578063e66f464e146101fc578063f746c56b1461030e575b600080fd5b34801561009f57600080fd5b506100a861033b565b6040518082815260200191505060405180910390f35b3480156100ca57600080fd5b506100e960048036038101908080359060200190929190505050610348565b6040518087815260200186600019166000191681526020018560001916600019168152602001848152602001838152602001828152602001965050505050505060405180910390f35b34801561013e57600080fd5b506101676004803603810190808035906020019092919080359060200190929190505050610393565b005b6101916004803603810190808035906020019092919080359060200190929190505050610511565b005b6101c3600480360381019080803560001916906020019092919080356000191690602001909291905050506107ca565b005b3480156101d157600080fd5b506101fa6004803603810190808035906020019092919080359060200190929190505050610b45565b005b34801561020857600080fd5b5061022760048036038101908080359060200190929190505050610c2e565b60405180806020018060200180602001848103845287818151815260200191508051906020019060200280838360005b83811015610272578082015181840152602081019050610257565b50505050905001848103835286818151815260200191508051906020019060200280838360005b838110156102b4578082015181840152602081019050610299565b50505050905001848103825285818151815260200191508051906020019060200280838360005b838110156102f65780820151818401526020810190506102db565b50505050905001965050505050505060405180910390f35b34801561031a57600080fd5b5061033960048036038101908080359060200190929190505050610e0c565b005b6000600280549050905090565b60028181548110151561035757fe5b90600052602060002090600b020160009150905080600001549080600101549080600201549080600301549080600901549080600a0154905086565b600061039d610f92565b6002848154811015156103ac57fe5b90600052602060002090600b0201915060008260060160003373ffffffffffffffffffffffffffffffffffffffff1673ffffffffffffffffffffffffffffffffffffffff1681526020019081526020016000205411151561040c57600080fd5b828260060160003373ffffffffffffffffffffffffffffffffffffffff1673ffffffffffffffffffffffffffffffffffffffff168152602001908152602001600020541015151561045c57600080fd5b60408051908101604052808481526020013373ffffffffffffffffffffffffffffffffffffffff1681525090508082600801600084600a015481526020019081526020016000206000820151816000015560208201518160010160006101000a81548173ffffffffffffffffffffffffffffffffffffffff021916908373ffffffffffffffffffffffffffffffffffffffff16021790555090505081600a016000815480929190600101919050555050505050565b60008060008060028681548110151561052657fe5b90600052602060002090600b02019350348585600301540214151561054a57600080fd5b6064851115151561055a57600080fd5b849250600091505b83600a01548210156107c15783600801600083815260200190815260200160002090503373ffffffffffffffffffffffffffffffffffffffff168160010160009054906101000a900473ffffffffffffffffffffffffffffffffffffffff1673ffffffffffffffffffffffffffffffffffffffff1614806105e7575060008160000154145b156105f1576107c2565b8281600001541015156106d757828160000160008282540392505081905550828460060160008360010160009054906101000a900473ffffffffffffffffffffffffffffffffffffffff1673ffffffffffffffffffffffffffffffffffffffff1673ffffffffffffffffffffffffffffffffffffffff16815260200190815260200160002060008282540392505081905550828460060160003373ffffffffffffffffffffffffffffffffffffffff1673ffffffffffffffffffffffffffffffffffffffff168152602001908152602001600020600082825401925050819055506107c1565b80600001548303925080600001548460060160008360010160009054906101000a900473ffffffffffffffffffffffffffffffffffffffff1673ffffffffffffffffffffffffffffffffffffffff1673ffffffffffffffffffffffffffffffffffffffff1681526020019081526020016000206000828254039250508190555080600001548460060160003373ffffffffffffffffffffffffffffffffffffffff1673ffffffffffffffffffffffffffffffffffffffff16815260200190815260200160002060008282540192505081905550600081600001819055508180600101925050610562565b5b505050505050565b6107d2610fc2565b600080600034111515610873576040517f08c379a00000000000000000000000000000000000000000000000000000000081526004018080602001828103825260218152602001807f50726963652073686f756c642062652067726561746572207468616e207a657281526020017f6f0000000000000000000000000000000000000000000000000000000000000081525060400191505060405180910390fd5b60e0604051908101604052806002805490508152602001856000191681526020018660001916815260200134815260200160006040519080825280602002602001820160405280156108d45781602001602082028038833980820191505090505b508152602001600181526020016000815250925060016002849080600181540180825580915050906001820390600052602060002090600b020160009091929091909150600082015181600001556020820151816001019060001916905560408201518160020190600019169055606082015181600301556080820151816004019080519060200190610968929190611006565b5060a0820151816009015560c082015181600a0155505003915060028281548110151561099157fe5b90600052602060002090600b02019050806004013390806001815401808255809150509060018203906000526020600020016000909192909190916101000a81548173ffffffffffffffffffffffffffffffffffffffff021916908373ffffffffffffffffffffffffffffffffffffffff1602179055505060408051908101604052804281526020013373ffffffffffffffffffffffffffffffffffffffff168152508160070160008081526020019081526020016000206000820151816000015560208201518160010160006101000a81548173ffffffffffffffffffffffffffffffffffffffff021916908373ffffffffffffffffffffffffffffffffffffffff16021790555090505060018160050160003373ffffffffffffffffffffffffffffffffffffffff1673ffffffffffffffffffffffffffffffffffffffff16815260200190815260200160002060006101000a81548160ff02191690831515021790555060648160060160003373ffffffffffffffffffffffffffffffffffffffff1673ffffffffffffffffffffffffffffffffffffffff168152602001908152602001600020819055505050505050565b600060011515600160003373ffffffffffffffffffffffffffffffffffffffff1673ffffffffffffffffffffffffffffffffffffffff16815260200190815260200160002060009054906101000a900460ff161515141515610ba657600080fd5b6000809054906101000a900473ffffffffffffffffffffffffffffffffffffffff1673ffffffffffffffffffffffffffffffffffffffff163373ffffffffffffffffffffffffffffffffffffffff16141515610c0157600080fd5b600283815481101515610c1057fe5b90600052602060002090600b02019050818160030181905550505050565b60608060606000606080600080600289815481101515610c4a57fe5b90600052602060002090600b020194508460090154604051908082528060200260200182016040528015610c8d5781602001602082028038833980820191505090505b50935084600a0154604051908082528060200260200182016040528015610cc35781602001602082028038833980820191505090505b509250600091505b8460090154821015610d1957846007016000838152602001908152602001600020600001548483815181101515610cfe57fe5b90602001906020020181815250508180600101925050610ccb565b600090505b84600a0154811015610d6c57846008016000828152602001908152602001600020600001548382815181101515610d5157fe5b90602001906020020181815250508080600101915050610d1e565b83838660040180805480602002602001604051908101604052809291908181526020018280548015610df357602002820191906000526020600020905b8160009054906101000a900473ffffffffffffffffffffffffffffffffffffffff1673ffffffffffffffffffffffffffffffffffffffff1681526020019060010190808311610da9575b5050505050905097509750975050505050509193909250565b6000600282815481101515610e1d57fe5b90600052602060002090600b020190508060050160003373ffffffffffffffffffffffffffffffffffffffff1673ffffffffffffffffffffffffffffffffffffffff16815260200190815260200160002060009054906101000a900460ff16151515610e8857600080fd5b60408051908101604052804281526020013373ffffffffffffffffffffffffffffffffffffffff16815250816007016000836009015481526020019081526020016000206000820151816000015560208201518160010160006101000a81548173ffffffffffffffffffffffffffffffffffffffff021916908373ffffffffffffffffffffffffffffffffffffffff160217905550905050806009016000815480929190600101919050555060018160050160003373ffffffffffffffffffffffffffffffffffffffff1673ffffffffffffffffffffffffffffffffffffffff16815260200190815260200160002060006101000a81548160ff0219169083151502179055505050565b604080519081016040528060008152602001600073ffffffffffffffffffffffffffffffffffffffff1681525090565b60e060405190810160405280600081526020016000801916815260200160008019168152602001600081526020016060815260200160008152602001600081525090565b82805482825590600052602060002090810192821561107f579160200282015b8281111561107e5782518260006101000a81548173ffffffffffffffffffffffffffffffffffffffff021916908373ffffffffffffffffffffffffffffffffffffffff16021790555091602001919060010190611026565b5b50905061108c9190611090565b5090565b6110d091905b808211156110cc57600081816101000a81549073ffffffffffffffffffffffffffffffffffffffff021916905550600101611096565b5090565b905600a165627a7a72305820cb7cf8d3e67fde599555a2b01497fdb0b4f2a8b33c7540e6230be846c71ef1f20029",
  "source": "pragma solidity ^0.4.24;\nimport \"./Admin.sol\";\n\ncontract MemeFactory is Admin {\n  Meme[] public memes;\n  \n\n  struct Upvote {\n    uint createdAt; \n    address user;\n  }\n\n  struct Sellable {\n    uint percentage;\n    address user;\n  }\n\n  struct Meme {\n    uint index;\n    bytes32 photoImage;\n    bytes32 title;\n    uint price;\n    address[] owners;\n    mapping (address => bool) hasVoted;\n    mapping (address => uint) ownersByShares;\n    mapping (uint => Upvote) upvotes;\n    mapping (uint => Sellable) sellables;\n    uint upvotesIndex;\n    uint sellablesIndex;\n  }\n\n  function createMeme(bytes32 title, bytes32 photoImage) public payable {\n    require(msg.value > 0, \"Price should be greater than zero\");\n\n    Meme memory meme = Meme({\n      index: memes.length,\n      photoImage: photoImage,\n      title: title,\n      price: msg.value,\n      owners: new address[](0),\n      upvotesIndex: 1,\n      sellablesIndex: 0\n    });\n    \n    uint index = memes.push(meme) - 1;\n    Meme storage _meme = memes[index];\n    \n    _meme.owners.push(msg.sender);\n    _meme.upvotes[0] = Upvote({ user: msg.sender, createdAt: now });\n    _meme.hasVoted[msg.sender] = true;\n    _meme.ownersByShares[msg.sender] = 100;\n  }\n\n  function buyMemeShares(uint memeIndex, uint sharePercentage) public payable {\n    Meme storage meme = memes[memeIndex];\n    require(meme.price * sharePercentage == msg.value);\n    require(sharePercentage <= 100);\n    \n    uint sharePercentageBought = sharePercentage;\n    \n    for (uint i = 0; i < meme.sellablesIndex; i++) {\n        Sellable storage sellable = meme.sellables[i];\n        \n        if (sellable.user == msg.sender || sellable.percentage == 0){\n            return;\n        }\n        \n        if (sellable.percentage >= sharePercentageBought) {\n          sellable.percentage -= sharePercentageBought;\n          meme.ownersByShares[sellable.user] -= sharePercentageBought;\n          meme.ownersByShares[msg.sender] += sharePercentageBought;\n          break;\n        } else {\n          sharePercentageBought -= sellable.percentage;\n          meme.ownersByShares[sellable.user] -= sellable.percentage;\n          meme.ownersByShares[msg.sender] += sellable.percentage;\n          sellable.percentage = 0;\n        }\n    }\n  }\n  \n  function sellMemeShare(uint memeIndex, uint sharePercentage) public {\n    Meme storage meme = memes[memeIndex];\n    require(meme.ownersByShares[msg.sender] > 0);\n    require(meme.ownersByShares[msg.sender] >= sharePercentage);\n    Sellable memory sellable = Sellable({ user: msg.sender, percentage: sharePercentage });\n    meme.sellables[meme.sellablesIndex] = sellable;\n    meme.sellablesIndex++;\n  }\n  \n  function upvoteMeme(uint memeIndex) public {\n    Meme storage meme = memes[memeIndex];\n    require(!meme.hasVoted[msg.sender]);\n    meme.upvotes[meme.upvotesIndex] = Upvote({ createdAt: now, user: msg.sender });\n    meme.upvotesIndex++;\n    meme.hasVoted[msg.sender] = true;\n  }\n  \n  function updateMemePrice(uint memeIndex, uint price) public onlyAdmin onlyOwner {\n    Meme storage meme = memes[memeIndex];\n    meme.price = price;\n  }\n  \n  function getMemesLength() public view returns (uint) {\n      return memes.length;\n  }\n\n  function getMemeDetails(uint memeIndex) public view returns (\n    uint[] memory upvotes,\n    uint[] memory sellables,\n    address[] memory owners\n  ) {\n    Meme storage meme = memes[memeIndex];\n    uint[] memory _upvotes = new uint[](meme.upvotesIndex);\n    uint[] memory _sellabes = new uint[](meme.sellablesIndex);\n\n    for (uint i = 0; i < meme.upvotesIndex; i++) {\n      _upvotes[i] = meme.upvotes[i].createdAt;\n    }\n\n    for (uint x = 0; x < meme.sellablesIndex; x++ ) {\n      _sellabes[x] = meme.sellables[x].percentage;\n    }\n\n    return (_upvotes, _sellabes, meme.owners);\n   }\n  \n}",
  "sourcePath": "/Users/liarolfrey/Gitprojects/cryptomemes/contracts/MemeFactory.sol",
  "compiler": {
    "name": "solc",
    "version": "0.4.24+commit.e67f0147.Emscripten.clang"
  },
  "schemaVersion": "2.0.1",
  "updatedAt": "2018-11-25T01:49:07.694Z"
}