{
  "contractName": "MemeFactory",
  "abi": [
    {
      "constant": true,
      "inputs": [
        {
          "name": "",
          "type": "uint256"
        }
      ],
      "name": "memes",
      "outputs": [
        {
          "name": "photoImage",
          "type": "bytes32"
        },
        {
          "name": "title",
          "type": "bytes32"
        },
        {
          "name": "price",
          "type": "uint256"
        },
        {
          "name": "upvotesIndex",
          "type": "uint256"
        },
        {
          "name": "sellablesIndex",
          "type": "uint256"
        }
      ],
      "payable": false,
      "stateMutability": "view",
      "type": "function"
    },
    {
      "constant": false,
      "inputs": [
        {
          "name": "title",
          "type": "bytes32"
        },
        {
          "name": "photoImage",
          "type": "bytes32"
        }
      ],
      "name": "createMeme",
      "outputs": [],
      "payable": true,
      "stateMutability": "payable",
      "type": "function"
    },
    {
      "constant": false,
      "inputs": [
        {
          "name": "memeIndex",
          "type": "uint256"
        },
        {
          "name": "sharePercentage",
          "type": "uint256"
        }
      ],
      "name": "buyMemeShares",
      "outputs": [],
      "payable": true,
      "stateMutability": "payable",
      "type": "function"
    },
    {
      "constant": false,
      "inputs": [
        {
          "name": "memeIndex",
          "type": "uint256"
        },
        {
          "name": "sharePercentage",
          "type": "uint256"
        }
      ],
      "name": "sellMemeShare",
      "outputs": [],
      "payable": false,
      "stateMutability": "nonpayable",
      "type": "function"
    },
    {
      "constant": false,
      "inputs": [
        {
          "name": "memeIndex",
          "type": "uint256"
        }
      ],
      "name": "upvoteMeme",
      "outputs": [],
      "payable": false,
      "stateMutability": "nonpayable",
      "type": "function"
    },
    {
      "constant": false,
      "inputs": [
        {
          "name": "memeIndex",
          "type": "uint256"
        },
        {
          "name": "price",
          "type": "uint256"
        }
      ],
      "name": "updateMemePrice",
      "outputs": [],
      "payable": false,
      "stateMutability": "nonpayable",
      "type": "function"
    },
    {
      "constant": true,
      "inputs": [],
      "name": "getMemesLength",
      "outputs": [
        {
          "name": "",
          "type": "uint256"
        }
      ],
      "payable": false,
      "stateMutability": "view",
      "type": "function"
    },
    {
      "constant": true,
      "inputs": [
        {
          "name": "memeIndex",
          "type": "uint256"
        }
      ],
      "name": "getMemeDetails",
      "outputs": [
        {
          "name": "upvotes",
          "type": "uint256[]"
        },
        {
          "name": "sellables",
          "type": "uint256[]"
        }
      ],
      "payable": false,
      "stateMutability": "view",
      "type": "function"
    }
  ],
  "bytecode": "0x6080604052336000806101000a81548173ffffffffffffffffffffffffffffffffffffffff021916908373ffffffffffffffffffffffffffffffffffffffff1602179055506001806000730a727d92742cc4044b1b65a20b8dcda88ccc746273ffffffffffffffffffffffffffffffffffffffff1673ffffffffffffffffffffffffffffffffffffffff16815260200190815260200160002060006101000a81548160ff021916908315150217905550610ffc806100be6000396000f30060806040526004361061008e576000357c0100000000000000000000000000000000000000000000000000000000900463ffffffff16806311bcab0814610093578063388f6064146100be5780636453d3c31461012b578063c0a789ee14610162578063d851359f1461018c578063de8d6b0f146101be578063e66f464e146101f5578063f746c56b146102bf575b600080fd5b34801561009f57600080fd5b506100a86102ec565b6040518082815260200191505060405180910390f35b3480156100ca57600080fd5b506100e9600480360381019080803590602001909291905050506102f9565b60405180866000191660001916815260200185600019166000191681526020018481526020018381526020018281526020019550505050505060405180910390f35b34801561013757600080fd5b50610160600480360381019080803590602001909291908035906020019092919050505061033e565b005b61018a60048036038101908080359060200190929190803590602001909291905050506104bc565b005b6101bc60048036038101908080356000191690602001909291908035600019169060200190929190505050610775565b005b3480156101ca57600080fd5b506101f36004803603810190808035906020019092919080359060200190929190505050610adb565b005b34801561020157600080fd5b5061022060048036038101908080359060200190929190505050610bc4565b604051808060200180602001838103835285818151815260200191508051906020019060200280838360005b8381101561026757808201518184015260208101905061024c565b50505050905001838103825284818151815260200191508051906020019060200280838360005b838110156102a957808201518184015260208101905061028e565b5050505090500194505050505060405180910390f35b3480156102cb57600080fd5b506102ea60048036038101908080359060200190929190505050610d10565b005b6000600280549050905090565b60028181548110151561030857fe5b90600052602060002090600a02016000915090508060000154908060010154908060020154908060080154908060090154905085565b6000610348610e96565b60028481548110151561035757fe5b90600052602060002090600a0201915060008260050160003373ffffffffffffffffffffffffffffffffffffffff1673ffffffffffffffffffffffffffffffffffffffff168152602001908152602001600020541115156103b757600080fd5b828260050160003373ffffffffffffffffffffffffffffffffffffffff1673ffffffffffffffffffffffffffffffffffffffff168152602001908152602001600020541015151561040757600080fd5b60408051908101604052808481526020013373ffffffffffffffffffffffffffffffffffffffff16815250905080826007016000846009015481526020019081526020016000206000820151816000015560208201518160010160006101000a81548173ffffffffffffffffffffffffffffffffffffffff021916908373ffffffffffffffffffffffffffffffffffffffff160217905550905050816009016000815480929190600101919050555050505050565b6000806000806002868154811015156104d157fe5b90600052602060002090600a0201935034858560020154021415156104f557600080fd5b6064851115151561050557600080fd5b849250600091505b836009015482101561076c5783600701600083815260200190815260200160002090503373ffffffffffffffffffffffffffffffffffffffff168160010160009054906101000a900473ffffffffffffffffffffffffffffffffffffffff1673ffffffffffffffffffffffffffffffffffffffff161480610592575060008160000154145b1561059c5761076d565b82816000015410151561068257828160000160008282540392505081905550828460050160008360010160009054906101000a900473ffffffffffffffffffffffffffffffffffffffff1673ffffffffffffffffffffffffffffffffffffffff1673ffffffffffffffffffffffffffffffffffffffff16815260200190815260200160002060008282540392505081905550828460050160003373ffffffffffffffffffffffffffffffffffffffff1673ffffffffffffffffffffffffffffffffffffffff1681526020019081526020016000206000828254019250508190555061076c565b80600001548303925080600001548460050160008360010160009054906101000a900473ffffffffffffffffffffffffffffffffffffffff1673ffffffffffffffffffffffffffffffffffffffff1673ffffffffffffffffffffffffffffffffffffffff1681526020019081526020016000206000828254039250508190555080600001548460050160003373ffffffffffffffffffffffffffffffffffffffff1673ffffffffffffffffffffffffffffffffffffffff1681526020019081526020016000206000828254019250508190555060008160000181905550818060010192505061050d565b5b505050505050565b61077d610ec6565b60008060003411151561081e576040517f08c379a00000000000000000000000000000000000000000000000000000000081526004018080602001828103825260218152602001807f50726963652073686f756c642062652067726561746572207468616e207a657281526020017f6f0000000000000000000000000000000000000000000000000000000000000081525060400191505060405180910390fd5b60c060405190810160405280856000191681526020018660001916815260200134815260200160006040519080825280602002602001820160405280156108745781602001602082028038833980820191505090505b508152602001600181526020016000815250925060016002849080600181540180825580915050906001820390600052602060002090600a02016000909192909190915060008201518160000190600019169055602082015181600101906000191690556040820151816002015560608201518160030190805190602001906108fe929190610f03565b506080820151816008015560a08201518160090155505003915060028281548110151561092757fe5b90600052602060002090600a02019050806003013390806001815401808255809150509060018203906000526020600020016000909192909190916101000a81548173ffffffffffffffffffffffffffffffffffffffff021916908373ffffffffffffffffffffffffffffffffffffffff1602179055505060408051908101604052804281526020013373ffffffffffffffffffffffffffffffffffffffff168152508160060160008081526020019081526020016000206000820151816000015560208201518160010160006101000a81548173ffffffffffffffffffffffffffffffffffffffff021916908373ffffffffffffffffffffffffffffffffffffffff16021790555090505060018160040160003373ffffffffffffffffffffffffffffffffffffffff1673ffffffffffffffffffffffffffffffffffffffff16815260200190815260200160002060006101000a81548160ff02191690831515021790555060648160050160003373ffffffffffffffffffffffffffffffffffffffff1673ffffffffffffffffffffffffffffffffffffffff168152602001908152602001600020819055505050505050565b600060011515600160003373ffffffffffffffffffffffffffffffffffffffff1673ffffffffffffffffffffffffffffffffffffffff16815260200190815260200160002060009054906101000a900460ff161515141515610b3c57600080fd5b6000809054906101000a900473ffffffffffffffffffffffffffffffffffffffff1673ffffffffffffffffffffffffffffffffffffffff163373ffffffffffffffffffffffffffffffffffffffff16141515610b9757600080fd5b600283815481101515610ba657fe5b90600052602060002090600a02019050818160020181905550505050565b6060806000606080600080600288815481101515610bde57fe5b90600052602060002090600a020194508460080154604051908082528060200260200182016040528015610c215781602001602082028038833980820191505090505b5093508460090154604051908082528060200260200182016040528015610c575781602001602082028038833980820191505090505b509250600091505b8460080154821015610cad57846006016000838152602001908152602001600020600001548483815181101515610c9257fe5b90602001906020020181815250508180600101925050610c5f565b600090505b8460090154821015610d0057846007016000828152602001908152602001600020600001548382815181101515610ce557fe5b90602001906020020181815250508080600101915050610cb2565b8383965096505050505050915091565b6000600282815481101515610d2157fe5b90600052602060002090600a020190508060040160003373ffffffffffffffffffffffffffffffffffffffff1673ffffffffffffffffffffffffffffffffffffffff16815260200190815260200160002060009054906101000a900460ff16151515610d8c57600080fd5b60408051908101604052804281526020013373ffffffffffffffffffffffffffffffffffffffff16815250816006016000836008015481526020019081526020016000206000820151816000015560208201518160010160006101000a81548173ffffffffffffffffffffffffffffffffffffffff021916908373ffffffffffffffffffffffffffffffffffffffff160217905550905050806008016000815480929190600101919050555060018160040160003373ffffffffffffffffffffffffffffffffffffffff1673ffffffffffffffffffffffffffffffffffffffff16815260200190815260200160002060006101000a81548160ff0219169083151502179055505050565b604080519081016040528060008152602001600073ffffffffffffffffffffffffffffffffffffffff1681525090565b60c0604051908101604052806000801916815260200160008019168152602001600081526020016060815260200160008152602001600081525090565b828054828255906000526020600020908101928215610f7c579160200282015b82811115610f7b5782518260006101000a81548173ffffffffffffffffffffffffffffffffffffffff021916908373ffffffffffffffffffffffffffffffffffffffff16021790555091602001919060010190610f23565b5b509050610f899190610f8d565b5090565b610fcd91905b80821115610fc957600081816101000a81549073ffffffffffffffffffffffffffffffffffffffff021916905550600101610f93565b5090565b905600a165627a7a72305820b4f087025b9e3bd617b79c6c804a6c164ebef0b6b42460cff17b8e440698b1310029",
  "source": "pragma solidity ^0.4.24;\nimport \"./Admin.sol\";\n\ncontract MemeFactory is Admin {\n  Meme[] public memes;\n  \n\n  struct Upvote {\n    uint createdAt; \n    address user;\n  }\n\n  struct Sellable {\n    uint percentage;\n    address user;\n  }\n\n  struct Meme {\n    bytes32 photoImage;\n    bytes32 title;\n    uint price;\n    address[] owners;\n    mapping (address => bool) hasVoted;\n    mapping (address => uint) ownersByShares;\n    mapping (uint => Upvote) upvotes;\n    mapping (uint => Sellable) sellables;\n    uint upvotesIndex;\n    uint sellablesIndex;\n  }\n\n  function createMeme(bytes32 title, bytes32 photoImage) public payable {\n    require(msg.value > 0, \"Price should be greater than zero\");\n\n    Meme memory meme = Meme({\n      photoImage: photoImage,\n      title: title,\n      price: msg.value,\n      owners: new address[](0),\n      upvotesIndex: 1,\n      sellablesIndex: 0\n    });\n    \n    uint index = memes.push(meme) - 1;\n    Meme storage _meme = memes[index];\n    \n    _meme.owners.push(msg.sender);\n    _meme.upvotes[0] = Upvote({ user: msg.sender, createdAt: now });\n    _meme.hasVoted[msg.sender] = true;\n    _meme.ownersByShares[msg.sender] = 100;\n  }\n\n  function buyMemeShares(uint memeIndex, uint sharePercentage) public payable {\n    Meme storage meme = memes[memeIndex];\n    require(meme.price * sharePercentage == msg.value);\n    require(sharePercentage <= 100);\n    \n    uint sharePercentageBought = sharePercentage;\n    \n    for (uint i = 0; i < meme.sellablesIndex; i++) {\n        Sellable storage sellable = meme.sellables[i];\n        \n        if (sellable.user == msg.sender || sellable.percentage == 0){\n            return;\n        }\n        \n        if (sellable.percentage >= sharePercentageBought) {\n          sellable.percentage -= sharePercentageBought;\n          meme.ownersByShares[sellable.user] -= sharePercentageBought;\n          meme.ownersByShares[msg.sender] += sharePercentageBought;\n          break;\n        } else {\n          sharePercentageBought -= sellable.percentage;\n          meme.ownersByShares[sellable.user] -= sellable.percentage;\n          meme.ownersByShares[msg.sender] += sellable.percentage;\n          sellable.percentage = 0;\n        }\n    }\n  }\n  \n  function sellMemeShare(uint memeIndex, uint sharePercentage) public {\n    Meme storage meme = memes[memeIndex];\n    require(meme.ownersByShares[msg.sender] > 0);\n    require(meme.ownersByShares[msg.sender] >= sharePercentage);\n    Sellable memory sellable = Sellable({ user: msg.sender, percentage: sharePercentage });\n    meme.sellables[meme.sellablesIndex] = sellable;\n    meme.sellablesIndex++;\n  }\n  \n  function upvoteMeme(uint memeIndex) public {\n    Meme storage meme = memes[memeIndex];\n    require(!meme.hasVoted[msg.sender]);\n    meme.upvotes[meme.upvotesIndex] = Upvote({ createdAt: now, user: msg.sender });\n    meme.upvotesIndex++;\n    meme.hasVoted[msg.sender] = true;\n  }\n  \n  function updateMemePrice(uint memeIndex, uint price) public onlyAdmin onlyOwner {\n    Meme storage meme = memes[memeIndex];\n    meme.price = price;\n  }\n  \n  function getMemesLength() public view returns (uint) {\n      return memes.length;\n  }\n\n  function getMemeDetails(uint memeIndex) public view returns (\n    uint[] memory upvotes,\n    uint[] memory sellables\n  ) {\n    Meme storage meme = memes[memeIndex];\n    uint[] memory _upvotes = new uint[](meme.upvotesIndex);\n    uint[] memory _sellabes = new uint[](meme.sellablesIndex);\n\n    for (uint i = 0; i < meme.upvotesIndex; i++) {\n      _upvotes[i] = meme.upvotes[i].createdAt;\n    }\n\n    for (uint x = 0; i < meme.sellablesIndex; x++ ) {\n      _sellabes[x] = meme.sellables[x].percentage;\n    }\n\n    return (_upvotes, _sellabes);\n   }\n  \n}",
  "sourcePath": "/Users/liarolfrey/Gitprojects/cryptomemes/contracts/MemeFactory.sol",
  "compiler": {
    "name": "solc",
    "version": "0.4.24+commit.e67f0147.Emscripten.clang"
  },
  "schemaVersion": "2.0.1",
  "updatedAt": "2018-11-24T23:53:15.085Z"
}